:020000040800F2
:100000000050002061170008051300080B130008BA
:1000100011130008171300081D130008000000004A
:100020000000000000000000000000002313000892
:100030002F130008000000003B13000847130008BE
:10004000A9170008A9170008A9170008A917000890
:10005000A9170008A9170008A9170008A917000880
:10006000A9170008A9170008A9170008A917000870
:10007000A9170008A9170008A9170008A917000860
:10008000A9170008A9170008A9170008A917000850
:1000900055130008A9170008A9170008A917000898
:1000A000A9170008A9170008A9170008A917000830
:1000B000691300087D130008A9170008A917000894
:1000C000A9170008A9170008A9170008A917000810
:1000D000A9170008A9170008A9170008A917000800
:1000E00091130008A9170008A917000800000000D4
:1000F0000000000000000000000000000000000000
:0C01000000000000000000005FF808F1A3
:10010C0010B5054C237833B9044B13B10448AFF345
:10011C0000800123237010BDCC01002000000000E2
:10012C00B4AC000808B5034B1BB103490348AFF34B
:10013C00008008BD00000000D0010020B4AC000815
:10014C00034613F8012B002AFBD1181A013870470B
:10015C0080B584B000AF78600023FB7301F078FBAE
:10016C00B8607868FFF7ECFF03469BB219467868D5
:10017C0009F07EFC0346FB7301F06AFB0246BB6888
:10018C00D31A0A2B03D8FB7B012BEAD000E000BF6B
:10019C0000BF1037BD4680BD80B487B000AFBA60D9
:1001AC007B600346FB730B46BB730023FB75FB7B29
:1001BC00BB820DE0BB8ABA681A44FB7D79680B449C
:1001CC0012781A70FB7D0133FB75BB8A0133BB823D
:1001DC00BB7B9BB2BA8A9A42ECD3FB7D7A68134400
:1001EC0000221A7000BF1C37BD4680BC704700004F
:1001FC0080B588B000AF07F1100300221A605A6076
:10020C009A60DA604F4B9B694E4A43F0100393613E
:10021C004C4B9B6903F01003FB60FB68494B9B69DB
:10022C00484A43F020039361464B9B6903F020033B
:10023C00BB60BB68434B9B69424A43F00403936128
:10024C00404B9B6903F004037B607B683D4B9B69CF
:10025C003C4A43F0080393613A4B9B6903F0080353
:10026C003B603B6800224FF40051374801F0B0FD71
:10027C0000223F21354801F0ABFD00224FF49C7168
:10028C00334801F0A5FD4FF400533B6101237B6122
:10029C000023BB610223FB6107F1100319462A48B6
:1002AC0001F012FC4FF440433B6103237B6107F1E7
:1002BC0010031946244801F007FC3F233B6101233E
:1002CC007B610023BB610223FB6107F1100319461C
:1002DC001E4801F0F9FB48F2C0733B6103237B61BC
:1002EC0007F110031946194801F0EEFB40F60743DD
:1002FC003B6103237B6107F110031946144801F09D
:10030C00E3FB4FF4E0433B61124B7B610123BB6188
:10031C0007F1100319460E4801F0D6FB4FF49C73FD
:10032C003B6101237B610023BB610223FB6107F16D
:10033C0010031946064801F0C7FB00BF2037BD4625
:10034C0080BD00BF001002400010014000080140B9
:10035C00000C01400000211080B500AF0C210248B8
:10036C0004F036FD00BF80BD1404002080B485B0BD
:10037C0000AF0346FB80FB88B42B01D9B423FB8070
:10038C00FB8840F26C7202FB03F30A4A82FB0312F5
:10039C001A44D211DB17D31A9BB203F22623FB812A
:1003AC00054B1B68FA891A6400BF1437BD4680BC24
:1003BC00704700BFB7600BB61404002080B500AFC7
:1003CC005A20FFF7D3FF024B01221A7000BF80BDE9
:1003DC00E801002080B500AF0020FFF7C7FF024BFB
:1003EC0000221A7000BF80BDE801002080B500AF6C
:1003FC00124B134A1A60114B124A5A600F4B0022CF
:10040C009A600E4B0022DA600C4B4FF480421A615A
:10041C000A4B00225A61094B00229A61074B0022B9
:10042C00DA61064B00221A62044801F01BFD0346F8
:10043C00002B01D000F0BCFA00BF80BDEC01002005
:10044C0000540040A086010080B588B000AF7860F1
:10045C0007F1100300221A605A609A60DA607B6818
:10046C001B68154A934223D1144B9B69134A43F0E2
:10047C0008039361114B9B6903F00803FB60FB6855
:10048C00C0233B6112237B610323FB6107F1100343
:10049C0019460B4801F018FB084BDB69074A43F47B
:1004AC000013D361054BDB6903F40013BB60BB681D
:1004BC0000BF2037BD4680BD0054004000100240F4
:1004CC00000C014080B586B002AF0346FB71FB798E
:1004DC0023F00F03FB73FB791B01BB73FB7B43F016
:1004EC000C03DBB23B72FB7B43F00803DBB27B7289
:1004FC00BB7B43F00C03DBB2BB72BB7B43F008034A
:10050C00DBB2FB7207F108026423009304234E2133
:10051C00034801F0EBFD00BF1037BD4680BD00BFA6
:10052C00EC01002080B586B002AF0346FB71FB796D
:10053C0023F00F03FB73FB791B01BB73FB7B43F0B5
:10054C000D03DBB23B72FB7B43F00903DBB27B7226
:10055C00BB7B43F00D03DBB2BB72BB7B43F00903E7
:10056C00DBB2FB7207F108026423009304234E21D3
:10057C00034801F0BBFD00BF1037BD4680BD00BF76
:10058C00EC01002080B500AF3C2001F06BF902209B
:10059C00FFF798FF2820FFF795FF0C20FFF792FF3D
:1005AC008020FFF78FFF0120FFF78CFF00BF80BD7D
:1005BC0080B500AF0120FFF785FF022001F052F952
:1005CC0000BF80BD80B584B000AF786039607B68B7
:1005DC00013B032B16D801A252F823F0F9050008B1
:1005EC00FF050008050600080B0600080023FB7336
:1005FC0008E04023FB7305E01423FB7302E0542353
:10060C00FB7300BF3B68DAB2FB7B1344DBB2013BEC
:10061C00FB73FB7B63F07F03DBB21846FFF752FFE3
:10062C0000BF1037BD4680BD80B582B000AF78608A
:10063C0006E07B685A1C7A601B781846FFF772FF3D
:10064C007B681B78002BF4D100BF00BF0837BD4678
:10065C0080BD0000B0B5A6B000AF01F0A1F800F06D
:10066C00CDF8FFF7C5FD09F02BF900F075FF00F090
:10067C0025FFFFF7BBFE00220021282001F0EDF939
:10068C00282001F006FA00F0CDFEFFF77BFFFFF704
:10069C008FFF01210120FFF795FF4A48FFF7C4FFA8
:1006AC004FF47A7001F0DEF800222021464801F068
:1006BC008FFB00221021444801F08AFB0022082104
:1006CC00414801F085FB01224FF480713E4801F056
:1006DC007FFBFFF741FE3D4A3D4B14461D460FCDB7
:1006EC000FC40FCD0FC495E80F0084E80F00374BF3
:1006FC00384A03F1300415460FCD0FC40FCD0FC48B
:10070C0095E80F0084E80F00304B334A03F1600486
:10071C0015460FCD0FC40FCD0FC495E80F0084E81C
:10072C000F002E4804F0AAFA2D4804F0A7FAFFF7A0
:10073C003FFF01210120FFF745FF2A48FFF774FF17
:10074C0001210220FFF73EFF2748FFF76DFF274BE3
:10075C001B78012B0BD14FF40051254801F050FBB5
:10076C00244800F00DFD214B00221A70EFE7002306
:10077C00C7F8943011E0D7F8942013465B0013446B
:10078C001B01124A134400220021184600F062F9A2
:10079C00D7F894300133C7F89430D7F89430022B43
:1007AC00E9DD00F0B1F801F053F80246124B1B687A
:1007BC00D31AB3F5FA7FCAD901F04AF803460E4AA8
:1007CC001360C4E7CCAC0008000C014040020020D0
:1007DC00FCAC00082CAD00085CAD000884030020C4
:1007EC00CC030020DCAC0008ECAC0008D0020020EC
:1007FC0000100140D40200206C03002080B594B09E
:10080C0000AF07F1280328220021184609F0BAFD91
:10081C0007F1140300221A605A609A60DA601A61B8
:10082C003B1D00221A605A609A60DA600123BB6299
:10083C004FF48033FB6200233B630123BB63022331
:10084C007B644FF48033BB644FF4E013FB6407F11B
:10085C002803184603F010FD0346002B01D000F0CE
:10086C00A7F80F237B610223BB610023FB614FF4CC
:10087C0080633B6200237B6207F11403022118465C
:10088C0003F07CFF0346002B01D000F091F81023FD
:10089C007B6000233B613B1D184604F0E9F80346DE
:1008AC00002B01D000F084F800BF5037BD4680BD4E
:1008BC0080B582B000AF78607B681B68B3F1804F65
:1008CC0001D100F041FA7B681B68064A934204D1BF
:1008DC00054B1B680133044A136000BF0837BD4643
:1008EC0080BD00BF000400406403002080B582B0CE
:1008FC0000AF0346FB80FB88184600F089FA00BF66
:10090C000837BD4680BD000090B589B002AF00F03D
:10091C009FFF02461F4B1B68D31AB3F5967F35D940
:10092C0000F096FF03461B4A136001210120FFF7DC
:10093C0049FE1948FFF778FE01210220FFF742FE1D
:10094C00164B1B78012B01D1412300E04323FB758F
:10095C00134B1B78002B06D1FA7D3B1D1149184611
:10096C0009F0F0FC0EE0104BD9690F4BDC6C0E4B10
:10097C00DB6FFA7D381D0192009323460A460B4922
:10098C0009F0E0FC3B1D1846FFF74EFE00BF1C377C
:10099C00BD4690BD700300208CAD0008E80100201E
:1009AC00680300209CAD000840020020B0AD000898
:1009BC0080B400AF72B600BFFEE7000080B584B013
:1009CC0000AF78607B68B3F1FF3F27D10023FB6059
:1009DC0020E01E49FA6813465B0013441B010B44CC
:1009EC00143300221A601949FA6813465B00134449
:1009FC001B010B44283300221A601449FA68134671
:100A0C005B0013441B010B442C3301221A60FB685E
:100A1C000133FB60FB68022BDBDD12E07B68012BF2
:100A2C0006D100224FF48071094801F0D1F908E099
:100A3C007B68002B05D101224FF48071044801F032
:100A4C00C7F900BF1037BD4680BD00BF4002002073
:100A5C00000C014080B485B000AFF860B9607A60DA
:100A6C007B68002B03D07B681A68FB685A61BB68F3
:100A7C00002B03D0BB681A68FB681A62FB685B69C1
:100A8C00002B30D0FB68DA69FB681B6A9A4203DAE8
:100A9C00FB6800221A6108E0FB68DA69FB681B6AD4
:100AAC009A4202DDFB6801221A61FB68DA69FB6875
:100ABC001B6A9A4213D0FB680022DA62FB685B69FE
:100ACC00002B16DDFB685B69FA68926902FB03F385
:100ADC0044F6206292FBF3F2FB689A6209E0FB6831
:100AEC0000229A6205E0FB6800229A62FB680122F0
:100AFC00DA6200BF1437BD4680BC704780B586B043
:100B0C0000AFF860B9607A600120FFF757FFFFF77C
:100B1C0055FC4FF4FA7000F0A5FE864B00221A70BB
:100B2C00854B00221A70854B00221A70FB6800223C
:100B3C001A70BB6800221A707B6800221A7000239E
:100B4C007B6141E07E497A6913465B0013441B01CB
:100B5C000B44143314221A6079497A6913465B00EA
:100B6C0013441B010B441433196875487A691346F6
:100B7C005B0013441B01034418331B6801FB03F394
:100B8C0044F6206292FBF3F16D487A6913465B00E0
:100B9C0013441B0103442833196069497A691346CD
:100BAC005B0013441B010B44103301221A6064498F
:100BBC007A6913465B0013441B010B442C3301224E
:100BCC001A607B6901337B617B69022BBADD5C4B5C
:100BDC000022DA625B4B00221A600AE0554B1B784C
:100BEC00DBB2012B05D1FB6801221A70544B012298
:100BFC00DA62FB681B78002B03D1524B1B680E2B5F
:100C0C00ECDD4F4B0122DA624D4B0022DA654D4B85
:100C1C0000221A600AE0484B1B78DBB2012B05D18D
:100C2C00BB6801221A70464B0122DA65BB681B783F
:100C3C00002B03D1434B1B680E2BECDD404B0122E8
:100C4C00DA653F4B0022C3F88C203E4B00221A6021
:100C5C000BE03A4B1B78DBB2012B06D17B680122EF
:100C6C001A70374B0122C3F88C207B681B78002B41
:100C7C0003D1344B1B680E2BEBDD314B0122C3F837
:100C8C008C2000233B612AE02D493A6913465B0016
:100C9C0013441B010B44143300221A6028493A698F
:100CAC0013465B0013441B010B44283300221A60CB
:100CBC0023493A6913465B0013441B010B441C3354
:100CCC0000221A601E493A6913465B0013441B014B
:100CDC000B442C3300221A603B6901333B613B69A6
:100CEC00022BD1DDFB681B78012B09D1BB681B786B
:100CFC00012B05D17B681B78012B01D1002315E05A
:100D0C00FB681B78002B02D14FF0FF330EE0BB6861
:100D1C001B78002B02D16FF0010307E07B681B7876
:100D2C00002B02D16FF0020300E0012318461837A4
:100D3C00BD4680BD7403002075030020760300209F
:100D4C00400200206403002080B582B000AF002375
:100D5C007B6053E07A6813465B0013441B012B4AFB
:100D6C0013443B603B68DB6A002B44D13B689B6AB5
:100D7C00002B40DD3B685B6A5A1C3B685A623B683F
:100D8C005A6A3B689B6A9A4215DB3B6898683B68D9
:100D9C0099893B681B69002B0CBF01230023DBB234
:100DAC001A4601F015F83B6818683B689B880122CD
:100DBC00194601F00DF83B689A6A3B685B6A9A42E7
:100DCC0019DA3B6818683B689B880022194600F0CA
:100DDC00FFFF3B6800225A623B681B69002B05D160
:100DEC003B68DB695A1C3B68DA6104E03B68DB69F1
:100DFC005A1E3B68DA617B6801337B607B68022B8F
:100E0C00A8DD00BF00BF0837BD4680BD40020020F2
:100E1C0080B582B000AF0346FB80FB88B3F5004F72
:100E2C0004D14FF0FF30FFF7C9FD31E0FB88B3F57B
:100E3C00804F06D1184B0122DA62184B01221A702E
:100E4C0026E0FB88B3F5005F06D1134B0122DA656F
:100E5C00134B01221A701BE0FB88B3F5805F17D18E
:100E6C000D4B0122C3F88C200E4B01221A700A4B39
:100E7C000122C3F88C20084B0022C3F88820064BB3
:100E8C0000225A6701224FF40051074800F0A0FFDE
:100E9C0000BF0837BD4680BD40020020740300200F
:100EAC0075030020760300200010014080B500AFD0
:100EBC000E490F4809F046FA0D48FFF749F90D495C
:100ECC000B4809F03FFA0A48FFF742F90A4908486B
:100EDC0009F038FA0648FFF73BF90849044809F0CD
:100EEC0031FA0348FFF734F900BF80BDC8AD0008E4
:100EFC00FC020020FCAD000830AE00086CAE00080F
:100F0C0080B584B000AF634B9B78482B4FD1012246
:100F1C002021614800F05CFF002210215E4800F0A7
:100F2C0057FFFFF745FB01210120FFF74BFB5B4807
:100F3C00FFF77AFBFFF74EFA594B00221A70594A09
:100F4C0059495A48FFF7DAFD0346594A1360FFF72F
:100F5C002FFB574B1B68002B16D1514B01221A70DB
:100F6C005449554809F0EEF95348FFF7F1F80121BF
:100F7C000120FFF727FB5148FFF756FB0122082100
:100F8C00454800F025FF10E0494B1B681A464C49B8
:100F9C00494809F0D7F94848FFF7DAF80121012050
:100FAC00FFF710FB4748FFF73FFB00236DE0394B81
:100FBC009B78562B2FD1444B364A05210320FFF743
:100FCC00EBF8414809F032F90346FB71FB79642BCD
:100FDC001FD8FB793B600023FB600EE0FA681346D8
:100FEC005B0013441B01394A13443A46002118464E
:100FFC00FFF730FDFB680133FB60FB68022BEDDD76
:10100C00FB791A4632492C4809F09CF92A48FFF71B
:10101C009FF8002339E01F4B9B78762B08D12D4984
:10102C00254809F08FF92448FFF792F800232CE0AB
:10103C00184B9B78452B16D1234B164A03210320C2
:10104C00FFF7AAF8204809F0F1F8B860B868FFF784
:10105C00B5FCBA682049184809F074F91648FFF72E
:10106C0077F8002311E00B4B9B78532B0CD14FF0EE
:10107C00FF30FFF7A3FC19490F4809F063F90E483C
:10108C00FFF766F8002300E0012318461037BD4631
:10109C0080BD00BFD4020020000C0140A8AE0008A7
:1010AC0068030020790300207803002077030020D8
:1010BC007C030020B8AE0008FC020020C8AE00087B
:1010CC00D8AE0008F0AE00084C030020400200200F
:1010DC00FCAE000818AF000840AF000858AF00087D
:1010EC0080B586B000AF1D4B1B78442B15D107F192
:1010FC0008031A4A04210220FFF74EF807F10803EF
:10110C00184609F093F838613B697B603B1D00225F
:10111C0019461348FFF79EFC1AE0104B1B78502B16
:10112C0016D1104B0D4A04210220FFF735F80D485B
:10113C0009F07CF878617B699BB21846FFF716F9C9
:10114C007A690949094809F0FDF80848FFF700F8E1
:10115C00012318461837BD4680BD00BFD4020020BD
:10116C0040020020580300206CAF0008FC02002055
:10117C0080B500AFFFF7B4FF0346184680BD0000F2
:10118C0080B582B000AF78607B681B783A2B6CD14D
:10119C007B6801331B78233B1C2B5ED801A252F8D1
:1011AC0023F000BF4D1200086712000867120008F8
:1011BC00671200086712000867120008671200081F
:1011CC00671200083912000867120008251200087F
:1011DC0067120008671200086712000867120008FF
:1011EC0067120008671200086712000867120008EF
:1011FC0067120008671200086712000867120008DF
:10120C0067120008671200086712000867120008CE
:10121C00671200086112000819491A4809F092F87F
:10122C001848FEF795FFFFF76BFE25E016491548A9
:10123C0009F088F81348FEF78BFFFFF751FF1BE00E
:10124C001249104809F07EF80E48FEF781FFFFF7AF
:10125C008FFF11E0FFF72AFE0EE00D49094809F057
:10126C0071F80848FEF774FF06E07B681B783F2B8B
:10127C0002D1FFF71BFEFFE700BF0837BD4680BD5C
:10128C0084AF0008FC02002098AF0008ACAF000847
:10129C00C0AF000880B485B000AF154B9B69144AF1
:1012AC0043F001039361124B9B6903F00103BB6094
:1012BC00BB680F4BDB690E4A43F08053D3610C4B78
:1012CC00DB6903F080537B607B680A4B5B68FB60D7
:1012DC00FB6823F0E063FB60FB6843F00073FB608A
:1012EC00044AFB68536000BF1437BD4680BC70478E
:1012FC00001002400000014080B400AFFEE780B453
:10130C0000AFFEE780B400AFFEE780B400AFFEE7AD
:10131C0080B400AFFEE780B400AF00BFBD4680BC18
:10132C00704780B400AF00BFBD4680BC704780B42E
:10133C0000AF00BFBD4680BC704780B500AF00F069
:10134C0075FA00BF80BD000080B500AF024801F007
:10135C004AFB00BF80BD00BF2811002080B500AF44
:10136C00024803F0D7FD00BF80BD00BF84030020FE
:10137C0080B500AF024803F0CDFD00BF80BD00BFBB
:10138C00CC03002080B500AF4FF4805000F052FD2C
:10139C004FF4005000F04EFD4FF4804000F04AFD39
:1013AC004FF4004000F046FD00BF80BD80B586B014
:1013BC0000AF7860144A154BD31A7B617B693B6193
:1013CC00134B1B68002B02D1114B124A1A60104BA5
:1013DC001A687B6813443A699A4207D208F0DAFF1C
:1013EC0003460C221A604FF0FF3309E0084B1B68D0
:1013FC00FB60074B1A687B681344054A1360FB6853
:10140C0018461837BD4680BD00500020000400006F
:10141C00800300208017002080B400AF00BFBD46C1
:10142C0080BC704780B586B000AF07F1080300227E
:10143C001A605A609A60DA603B4600221A605A6061
:10144C001D4B4FF080421A601B4B47225A601A4BBF
:10145C0000229A60184B3122DA60174B00221A6175
:10146C00154B00229A61144803F0B8FB0346002B7D
:10147C0001D0FFF79DFA4FF48053BB6007F10803CE
:10148C0019460D4803F010FF0346002B01D0FFF75F
:10149C008FFA00233B6000237B603B4619460648CD
:1014AC0004F092FA0346002B01D0FFF781FA00BF3B
:1014BC001837BD4680BD00BF8403002080B586B0C0
:1014CC0000AF07F1080300221A605A609A60DA60D4
:1014DC003B4600221A605A601D4B1E4A1A601C4B78
:1014EC0041F61F425A601A4B00229A60184B42F286
:1014FC000F72DA60164B00221A61154B00229A61AA
:10150C00134803F06BFB0346002B01D0FFF750FA96
:10151C004FF48053BB6007F1080319460C4803F0E5
:10152C00C3FE0346002B01D0FFF742FA00233B60B9
:10153C0000237B603B461946054804F045FA0346F8
:10154C00002B01D0FFF734FA00BF1837BD4680BD21
:10155C00CC0300200004004080B58EB000AF07F132
:10156C00280300221A605A609A60DA6007F120039F
:10157C0000221A605A603B1D00221A605A609A6061
:10158C00DA601A615A619A612C4B2D4A1A602B4B06
:10159C0047225A60294B00229A60284B44F61F625E
:1015AC00DA60264B00221A61244B00229A612348F0
:1015BC0003F014FB0346002B01D0FFF7F9F94FF4AD
:1015CC008053BB6207F1280319461C4803F06CFEDC
:1015DC000346002B01D0FFF7EBF9184803F0A0FBF2
:1015EC000346002B01D0FFF7E3F900233B620023F5
:1015FC007B6207F120031946104804F0E5F9034615
:10160C00002B01D0FFF7D4F960237B600023BB6073
:10161C000023FB6000237B613B1D0C22194607480D
:10162C0003F080FD0346002B01D0FFF7C1F90348FE
:10163C0000F05CF800BF3837BD4680BD14040020B4
:10164C000008004080B586B000AF78607B681B68EE
:10165C00B3F1804F14D1224BDB69214A43F00103D3
:10166C00D3611F4BDB6903F001037B617B690022B3
:10167C0002211C2000F0F1F91C2000F00AFA2AE0EB
:10168C007B681B68174A934214D1154BDB69144ACB
:10169C0043F00203D361124BDB6903F002033B619D
:1016AC003B69002200211D2000F0D7F91D2000F01D
:1016BC00F0F910E07B681B680B4A93420BD1084B86
:1016CC00DB69074A43F00403D361054BDB6903F084
:1016DC000403FB60FB6800BF1837BD4680BD00BF2C
:1016EC0000100240000400400008004080B588B0A3
:1016FC0000AF786007F1100300221A605A609A60FC
:10170C00DA607B681B68104A934218D10F4B9B69B7
:10171C000E4A43F0080393610C4B9B6903F00803DA
:10172C00FB60FB684FF400733B6102237B61022377
:10173C00FB6107F110031946054800F0C5F900BF1D
:10174C002037BD4680BD00BF00080040001002409D
:10175C00000C0140FFF760FE0B480C490C4A0023BB
:10176C0002E0D458C4500433C4188C42F9D3094A4B
:10177C00094C002301E013600432A242FBD308F0B1
:10178C000FFEFEF767FF704700000020CC01002021
:10179C0088B10008CC01002080170020FEE7000073
:1017AC0080B500AF084B1B68074A43F01003136069
:1017BC00032000F047F90F2000F008F8FFF76AFD4E
:1017CC000023184680BD00BF0020024080B582B0C7
:1017DC0000AF7860124B1A68124B1B7819464FF405
:1017EC007A73B3FBF1F3B2FBF3F3184600F05FF935
:1017FC000346002B01D001230EE07B680F2B0AD887
:10180C00002279684FF0FF3000F027F9064A7B6818
:10181C001360002300E0012318460837BD4680BD45
:10182C0000000020080000200400002080B400AF5D
:10183C00054B1B781A46054B1B681344034A13606F
:10184C0000BFBD4680BC7047080000205C0400202F
:10185C0080B400AF024B1B681846BD4680BC704775
:10186C005C04002080B584B000AF7860FFF7F0FF17
:10187C00B8607B68FB60FB68B3F1FF3F05D00A4B97
:10188C001B781A46FB681344FB6000BFFFF7E0FFB0
:10189C000246BB68D31AFA689A42F7D800BF00BF59
:1018AC001037BD4680BD00BF0800002080B485B055
:1018BC0000AF78607B6803F00703FB600C4BDB68C0
:1018CC00BB60BA684FF6FF031340BB60FB681A029B
:1018DC00BB68134343F0BF6343F40033BB60044A5B
:1018EC00BB68D36000BF1437BD4680BC704700BFD7
:1018FC0000ED00E080B400AF044BDB681B0A03F082
:10190C0007031846BD4680BC704700BF00ED00E0E1
:10191C0080B483B000AF0346FB7197F90730002BFE
:10192C000BDBFB7903F01F02064997F907305B09C3
:10193C00012000FA02F241F8232000BF0C37BD460B
:10194C0080BC704700E100E080B483B000AF034678
:10195C003960FB7197F90730002B0ADB3B68DAB270
:10196C000C4997F907301201D2B20B4483F80023CB
:10197C000AE03B68DAB20849FB7903F00F03043B39
:10198C001201D2B20B441A7600BF0C37BD4680BC94
:10199C00704700BF00E100E000ED00E080B489B0CA
:1019AC0000AFF860B9607A60FB6803F00703FB6175
:1019BC00FB69C3F10703042B28BF0423BB61FB693C
:1019CC000433062B02D9FB69033B00E000237B6147
:1019DC004FF0FF32BB6902FA03F3DA43BB681A40DB
:1019EC007B699A404FF0FF317B6901FA03F3D943CD
:1019FC007B680B40134318462437BD4680BC7047A8
:101A0C0080B582B000AF78607B68013BB3F1807F1A
:101A1C0001D301230FE00A4A7B68013B53600F217D
:101A2C004FF0FF30FFF790FF054B00229A60044BFC
:101A3C0007221A60002318460837BD4680BD00BF38
:101A4C0010E000E080B582B000AF78607868FFF7F6
:101A5C002DFF00BF0837BD4680BD80B586B000AFF6
:101A6C000346B9607A60FB7300237B61FFF742FF8A
:101A7C0078617A68B9687869FFF790FF024697F940
:101A8C000F3011461846FFF75FFF00BF1837BD46F1
:101A9C0080BD80B582B000AF0346FB7197F907306B
:101AAC001846FFF735FF00BF0837BD4680BD80B52F
:101ABC0082B000AF78607868FFF7A2FF0346184643
:101ACC000837BD4680BD000080B48BB000AF786095
:101ADC00396000237B6200233B6269E101227B6A4F
:101AEC0002FA03F3FB613B681B68FA691340BB61A4
:101AFC00BA69FB699A4240F058813B685B689A4A24
:101B0C0093425ED0984A934275D8984A934258D0E3
:101B1C00964A93426FD8964A934252D0944A934233
:101B2C0069D8944A93424CD0924A934263D8924AD1
:101B3C00934246D0904A93425DD8122B2AD8122B4E
:101B4C0059D801A252F823F0CF1B0008A91B00089A
:101B5C00BB1B0008FD1B0008031C0008031C00082D
:101B6C00031C0008031C0008031C0008031C0008CD
:101B7C00031C0008031C0008031C0008031C0008BD
:101B8C00031C0008031C0008031C0008B11B000800
:101B9C00C51B0008794A934213D02CE03B68DB68E4
:101BAC003B6229E03B68DB6804333B6224E03B6822
:101BBC00DB6808333B621FE03B68DB680C333B623D
:101BCC001AE03B689B68002B02D104233B6213E0B4
:101BDC003B689B68012B05D108233B627B68FA6943
:101BEC001A6109E008233B627B68FA695A6103E0D9
:101BFC0000233B6200E000BFBB69FF2B01D87B6870
:101C0C0001E07B6804337B61BB69FF2B02D87B6AE4
:101C1C009B0002E07B6A083B9B003B617B691A6876
:101C2C000F213B6901FA03F3DB431A40396A3B6924
:101C3C0001FA03F31A437B691A603B685B6803F093
:101C4C008053002B00F0B1804D4B9B694C4A43F004
:101C5C00010393614A4B9B6903F00103BB60BB68B2
:101C6C00484A7B6A9B08023352F82330FB607B6A3C
:101C7C0003F003039B000F2202FA03F3DB43FA6821
:101C8C001340FB607B68404A934213D07B683F4A09
:101C9C0093420DD07B683E4A934207D07B683D4A05
:101CAC00934201D1032306E0042304E0022302E063
:101CBC00012300E000237A6A02F0030292009340B1
:101CCC00FA681343FB602F497B6A9B080233FA685E
:101CDC0041F823203B685B6803F48013002B06D08B
:101CEC002D4B9A682C49BB6913438B6006E02A4B39
:101CFC009A68BB69DB43284913408B603B685B687F
:101D0C0003F40013002B06D0234BDA682249BB697D
:101D1C001343CB6006E0204BDA68BB69DB431E49FA
:101D2C001340CB603B685B6803F40033002B06D098
:101D3C00194B5A681849BB6913434B6006E0164BA4
:101D4C005A68BB69DB43144913404B603B685B68C2
:101D5C0003F48033002B21D00F4B1A680E49BB695A
:101D6C0013430B6021E000BF000032100000311063
:101D7C0000002210000021100000121000001110B1
:101D8C00001002400000014000080140000C01401E
:101D9C000010014000140140000401400B4B1A6874
:101DAC00BB69DB43094913400B607B6A01337B62DF
:101DBC003B681A687B6A22FA03F3002B7FF48EAE21
:101DCC0000BF00BF2C37BD4680BC704700040140EB
:101DDC0080B483B000AF78600B467B8013467B7079
:101DEC007B78002B03D07A887B681A6103E07B88B0
:101DFC001A047B681A6100BF0C37BD4680BC704763
:101E0C0080B485B000AF78600B467B807B68DB6864
:101E1C00FB607A88FB6813401A04FB68D9437B8803
:101E2C000B401A437B681A6100BF1437BD4680BC57
:101E3C007047000080B582B000AF0346FB80084BB2
:101E4C005A69FB881340002B06D0054AFB88536166
:101E5C00FB881846FEF74AFD00BF0837BD4680BD1B
:101E6C000004014080B584B000AF78607B68002B23
:101E7C0001D101232BE17B6893F83D30DBB2002BC1
:101E8C0006D17B68002283F83C207868FEF7DCFAE8
:101E9C007B68242283F83D207B681B681A687B686A
:101EAC001B6822F001021A607B681B681A687B6849
:101EBC001B6842F400421A607B681B681A687B68D6
:101ECC001B6822F400421A6002F0A0FDF8607B68E7
:101EDC005B68814A934207D8FB68804A934294BF5F
:101EEC0001230023DBB206E0FB687D4A934294BFDA
:101EFC0001230023DBB2002B01D00123E7E0FB68B8
:101F0C00784AA2FB03239B0CBB607B681B685B6855
:101F1C0023F03F017B681B68BA680A435A607B68F0
:101F2C001B681B6A23F03F017B685B686A4A93421B
:101F3C0002D8BB68013309E0BB684FF4967202FB10
:101F4C0003F3694AA2FB03239B0901337A681268E5
:101F5C000B4313627B681B68DB6923F44F4222F04E
:101F6C00FF027B685B685C498B4219D8FB68591E81
:101F7C007B685B685B00B1FBF3F3591C40F6FC73A8
:101F8C000B40002B0AD0FB68591E7B685B685B001A
:101F9C00B1FBF3F30133C3F30B0351E004234FE024
:101FAC007B689B68002B11D1FB68581E7B685968B5
:101FBC000B465B000B44B0FBF3F30133C3F30B0391
:101FCC00002B0CBF01230023DBB212E0FB68581E70
:101FDC007B6859680B469B000B4499000B44B0FB83
:101FEC00F3F30133C3F30B03002B0CBF01230023CA
:101FFC00DBB2002B01D0012322E07B689B68002B15
:10200C000ED1FB68581E7B6859680B465B000B446D
:10201C00B0FBF3F30133C3F30B0343F400430FE0C2
:10202C00FB68581E7B6859680B469B000B44990053
:10203C000B44B0FBF3F30133C3F30B0343F4404302
:10204C00796809681343CB617B681B681B6823F0B4
:10205C00C0017B68DA697B681B6A1A437B681B6862
:10206C000A431A607B681B689B6823F4034323F0C4
:10207C00FF037A6811697A68D26811437A6812682A
:10208C000B4393607B681B68DB6823F0FF017B6864
:10209C005A697B689B691A437B681B680A43DA6040
:1020AC007B681B681A687B681B6842F001021A6027
:1020BC007B6800221A647B68202283F83D207B68B1
:1020CC0000221A637B68002283F83E200023184606
:1020DC001037BD4680BD00BFA08601007F841E0066
:1020EC00FF083D0083DE1B43D34D621080B588B0E2
:1020FC0002AFF8607A601A460B467B8113463B812F
:10210C00FFF7A6FB7861FB6893F83D30DBB2202B20
:10211C0040F0E0807B690093192301227049F86834
:10212C0000F064F90346002B01D00223D3E0FB68D6
:10213C0093F83C30012B01D10223CCE0FB68012247
:10214C0083F83C20FB681B681B6803F00103012B20
:10215C0007D0FB681B681A68FB681B6842F0010219
:10216C001A60FB681B681A68FB681B6822F4006223
:10217C001A60FB68212283F83D20FB68102283F84B
:10218C003E20FB6800221A64FB687A685A62FB687E
:10219C003A895A85FB685B8D9AB2FB681A85FB6895
:1021AC00504ADA6279897B693A6AF86800F09CF8DF
:1021BC000346002B01D001238DE000233B61FB681B
:1021CC001B685B693B61FB681B689B693B613B69F6
:1021DC0066E07A69396AF86800F022FA0346002B47
:1021EC000DD0FB681B6C042B07D1FB681B681A68AD
:1021FC00FB681B6842F400721A6001236BE0FB68F9
:10220C005B6A1A78FB681B681A61FB685B6A5A1C6C
:10221C00FB685A62FB685B8D9BB2013B9AB2FB6810
:10222C005A85FB681B8D013B9AB2FB681A85FB68CB
:10223C001B685B6903F00403042B1BD1FB681B8D2B
:10224C00002B17D0FB685B6A1A78FB681B681A6155
:10225C00FB685B6A5A1CFB685A62FB685B8D9BB21D
:10226C00013B9AB2FB685A85FB681B8D013B9AB205
:10227C00FB681A857A69396AF86800F019FA03461E
:10228C00002B0DD0FB681B6C042B07D1FB681B6863
:10229C001A68FB681B6842F400721A6001231AE08A
:1022AC00FB681B8D002B94D1FB681B681A68FB68BC
:1022BC001B6842F400721A60FB68202283F83D20F0
:1022CC00FB68002283F83E20FB68002283F83C2048
:1022DC00002300E0022318461837BD4680BD00BF1E
:1022EC00020010000000FFFF80B588B002AFF8605C
:1022FC007A603B600B467B81FB68DB6A7B617B69A8
:10230C00082B06D07B69012B03D07B6913F5803F2A
:10231C0008D1FB681B681A68FB681B6842F4807262
:10232C001A600BE0FB681B6B122B07D1FB681B6858
:10233C001A68FB681B6842F480721A603B68009351
:10234C007B6800224FF00111F86800F04FF803464B
:10235C00002B0DD0FB681B681B6803F48073B3F56E
:10236C00807F03D1FB684FF400721A64032335E0BD
:10237C00FB681B69B3F5804F08D17B89DBB21A4629
:10238C00FB681B6802F0FE021A611BE07B89DB1103
:10239C00DBB203F00603DBB263F00F03DAB2FB68C7
:1023AC001B681A613B687A680E49F86800F098F867
:1023BC000346002B01D0012310E07B89DAB2FB68C5
:1023CC001B681A613B687A680749F86800F088F85E
:1023DC000346002B01D0012300E0002318461837D8
:1023EC00BD4680BD080001000200010080B584B02C
:1023FC0000AFF860B9603B601346FB7148E03B6886
:10240C00B3F1FF3F44D0FFF723FA0246BB69D31A5E
:10241C003A689A4202D33B68002B39D1BB681B0C3B
:10242C00DBB2012B0DD1FB681B685B69DA43BB681F
:10243C0013409BB2002B0CBF01230023DBB21A46C6
:10244C000CE0FB681B689B69DA43BB6813409BB2CA
:10245C00002B0CBF01230023DBB21A46FB799A42F6
:10246C0016D1FB6800221A63FB68202283F83D20FA
:10247C00FB68002283F83E20FB681B6C43F02002B3
:10248C00FB681A64FB68002283F83C20012323E0DC
:10249C00BB681B0CDBB2012B0DD1FB681B685B69A5
:1024AC00DA43BB6813409BB2002B0CBF0123002303
:1024BC00DBB21A460CE0FB681B689B69DA43BB680D
:1024CC0013409BB2002B0CBF01230023DBB21A4636
:1024DC00FB799A4293D0002318461037BD4680BD35
:1024EC0080B584B000AFF860B9607A603B6071E091
:1024FC00FB681B685B6903F48063B3F5806F23D1C1
:10250C00FB681B681A68FB681B6842F400721A604F
:10251C00FB681B686FF480625A61FB6800221A63C7
:10252C00FB68202283F83D20FB68002283F83E20C4
:10253C00FB681B6C43F00402FB681A64FB68002206
:10254C0083F83C20012367E07B68B3F1FF3F41D067
:10255C00FFF77EF902463B68D31A7A689A4202D397
:10256C007B68002B36D1BB681B0CDBB2012B0CD16A
:10257C00FB681B685B69DA43BB6813409BB2002B9A
:10258C0014BF01230023DBB20BE0FB681B689B69C3
:10259C00DA43BB6813409BB2002B14BF012300230A
:1025AC00DBB2002B16D0FB6800221A63FB682022DA
:1025BC0083F83D20FB68002283F83E20FB681B6CEF
:1025CC0043F02002FB681A64FB68002283F83C206D
:1025DC00012321E0BB681B0CDBB2012B0CD1FB6887
:1025EC001B685B69DA43BB6813409BB2002B14BFBA
:1025FC0001230023DBB20BE0FB681B689B69DA4309
:10260C00BB6813409BB2002B14BF01230023DBB229
:10261C00002B7FF46DAF002318461037BD4680BDEC
:10262C0080B584B000AFF860B9607A6034E0F868C7
:10263C0000F086F80346002B01D0012334E0BB6880
:10264C00B3F1FF3F28D0FFF703F902467B68D31A9A
:10265C00BA689A4202D3BB68002B1DD1FB681B6879
:10266C005B6903F08003802B16D0FB6800221A6391
:10267C00FB68202283F83D20FB68002283F83E2073
:10268C00FB681B6C43F02002FB681A64FB68002299
:10269C0083F83C20012307E0FB681B685B6903F0AF
:1026AC008003802BC3D1002318461037BD4680BD54
:1026BC0080B584B000AFF860B9607A6034E0F86837
:1026CC0000F03EF80346002B01D0012334E0BB6838
:1026DC00B3F1FF3F28D0FFF7BBF802467B68D31A53
:1026EC00BA689A4202D3BB68002B1DD1FB681B68E9
:1026FC005B6903F00403042B16D0FB6800221A63F9
:10270C00FB68202283F83D20FB68002283F83E20E2
:10271C00FB681B6C43F02002FB681A64FB68002208
:10272C0083F83C20012307E0FB681B685B6903F01E
:10273C000403042BC3D1002318461037BD4680BDBB
:10274C0080B483B000AF78607B681B685B6903F46E
:10275C008063B3F5806F1BD17B681B686FF480625C
:10276C005A617B6800221A637B68202283F83D2023
:10277C007B68002283F83E207B681B6C43F00402CC
:10278C007B681A647B68002283F83C20012300E0FC
:10279C00002318460C37BD4680BC7047F0B58BB093
:1027AC0006AF78607B68002B01D10123F1E07B68D8
:1027BC0093F8A932DBB2002B06D17B68002283F898
:1027CC00A822786807F088FA7B68032283F8A9228C
:1027DC007B681B68184603F08DF97B681B683B60AF
:1027EC007E686D4606F110040FCC0FC523682B6074
:1027FC00331D0ECB386803F057F90346002B05D078
:10280C007B68022283F8A9220123C2E07B681B6843
:10281C000021184603F088F90023FB7340E0FB7B92
:10282C0079685A1C13469B001344DB000B4401339C
:10283C0001221A70FB7B79685A1C13469B001344C7
:10284C00DB000B44FA7B1A70FB7B79685A1C13462D
:10285C009B001344DB000B44033300221A70FA7BF9
:10286C00796813469B001344DB000B443833002279
:10287C001A60FA7B796813469B001344DB000B4407
:10288C003C3300221A60FA7B796813469B00134490
:10289C00DB000B44403300221A60FB7B0133FB73DB
:1028AC00FA7B7B685B689A42B9D30023FB7344E0E4
:1028BC00FA7B796813469B001344DB000B4403F24C
:1028CC00691300221A70FA7B796813469B00134433
:1028DC00DB000B4403F5B473FA7B1A70FA7B79684E
:1028EC0013469B001344DB000B4403F26B130022D2
:1028FC001A70FA7B796813469B001344DB000B4477
:10290C0003F5BC7300221A60FA7B796813469B00AE
:10291C001344DB000B4403F5BE7300221A60FA7BF0
:10292C00796813469B001344DB000B4403F5C0731A
:10293C0000221A60FB7B0133FB73FA7B7B685B68BC
:10294C009A42B5D37B681B683B607E686D4606F186
:10295C0010040FCC0FC523682B60331D0ECB3868C9
:10296C0003F0EEF80346002B05D07B68022283F8B7
:10297C00A92201230DE07B68002283F824207B68C8
:10298C00012283F8A9227B681B68184605F06FFBAF
:10299C00002318461437BD46F0BD80B582B000AF99
:1029AC0078607B6893F8A832012B01D1022316E0E2
:1029BC007B68012283F8A8227B681B68184603F009
:1029CC0083F80121786807F0FAFB7B681B681846CE
:1029DC0005F043FB7B68002283F8A82200231846ED
:1029EC000837BD4680BD80B588B000AF78607B6885
:1029FC001B68184605F045FBB861BB6903F400433E
:102A0C00002B03D0786800F01BFB19E1BB6903F4C1
:102A1C008063002B13D07B681B68B3F844309AB2E8
:102A2C007B681B6822F4806292B2A3F84420786819
:102A3C0007F0CDF90021786800F005F900E1BB69D9
:102A4C0003F48043002B0CD07B681B68B3F8443034
:102A5C009AB27B681B6822F4804292B2A3F844209D
:102A6C00EEE0BB6903F40053002B0CD07B681B68B1
:102A7C00B3F844309AB27B681B6822F4005292B2CD
:102A8C00A3F84420DCE0BB6903F48053002B27D06F
:102A9C007B681B68B3F840309AB27B681B6822F0E5
:102AAC00040292B2A3F840207B681B68B3F8403054
:102ABC009AB27B681B6822F0080292B2A3F84020FD
:102ACC00786807F0BDF97B681B68B3F844309AB29C
:102ADC007B681B6822F4805292B2A3F84420AFE0CA
:102AEC00BB6903F40063002B00F083800023FB77A9
:102AFC0010E07B681B681A46FB7F9B001A44FB7F27
:102B0C00128892B25B0020333B4423F8182CFB7FD5
:102B1C000133FB77FB7F072BEBD97B681B68B3F882
:102B2C0040309AB27B681B6842F0010292B2A3F863
:102B3C0040207B681B68B3F840309AB27B681B68F6
:102B4C0022F0010292B2A3F8402000BF7B681B6800
:102B5C00B3F844309BB203F48063002BF6D07B684F
:102B6C001B68B3F844309AB27B681B6822F480620D
:102B7C0092B2A3F844200023FB770FE0FB7F7A6826
:102B8C0012681146FA7F92000A445B0020333B44E2
:102B9C0033F8183C1380FB7F0133FB77FB7F072B4B
:102BAC00ECD97B681B68B3F840309AB27B681B6821
:102BBC0042F0080292B2A3F840207B681B68B3F87D
:102BCC0044309AB27B681B6822F4006292B2A3F87C
:102BDC0044207B681B68B3F840309AB27B681B6852
:102BEC0042F0040292B2A3F84020786807F00EF984
:102BFC0026E0BB6903F40073002B0FD07B681B68C5
:102C0C00B3F844309AB27B681B6822F4007292B21B
:102C1C00A3F84420786807F0CCF811E0BB6903F402
:102C2C008073002B0CD07B681B68B3F844309AB2CD
:102C3C007B681B6822F4807292B2A3F8442000BF18
:102C4C002037BD4680BD80B582B000AF78600B46A2
:102C5C00FB707B6893F8A832012B01D1022313E09F
:102C6C007B68012283F8A8227B68FA7883F82420F9
:102C7C007B681B68FA781146184605F0DBF97B680F
:102C8C00002283F8A822002318460837BD4680BDD1
:102C9C0080B584B000AF7860084611461A460346EA
:102CAC00FB700B463B801346BB700023FB7297F9FD
:102CBC000330002B0EDAFB7803F007035A1C134683
:102CCC009B001344DB007A681344FB60FB68012211
:102CDC005A700EE0FB7803F0070213469B00134476
:102CEC00DB0003F5B4737A681344FB60FB680022C5
:102CFC005A70FB7803F00703DAB2FB681A703A8853
:102D0C00FB681A61FB68BA78DA70BB78022B02D1C7
:102D1C00FB6800221A717B6893F8A832012B01D151
:102D2C0002230EE07B68012283F8A8227B681B68D3
:102D3C00F968184602F024FF7B68002283F8A82269
:102D4C00FB7A18461037BD4680BD80B584B000AF05
:102D5C0078600B46FB7097F90330002B0EDAFB788A
:102D6C0003F007035A1C13469B001344DB007A68DC
:102D7C001344FB60FB6801225A700EE0FB7803F0F1
:102D8C00070213469B001344DB0003F5B4737A6807
:102D9C001344FB60FB6800225A70FB7803F00703B6
:102DAC00DAB2FB681A707B6893F8A832012B01D158
:102DBC0002230EE07B68012283F8A8227B681B6843
:102DCC00F968184603F09CFA7B68002283F8A82265
:102DDC00002318461037BD4680BD80B586B000AFC5
:102DEC00F8607A603B600B46FB72FB7A03F00702DB
:102DFC0013469B001344DB0003F5B473FA681344C9
:102E0C007B617B697A685A617B693A689A617B69F4
:102E1C000022DA617B6900225A70FB7A03F0070307
:102E2C00DAB27B691A70FB681B687969184603F083
:102E3C0053FC002318461837BD4680BD80B483B0C0
:102E4C0000AF78600B46FB70FB7803F007027968E3
:102E5C0013469B001344DB000B4403F5C2731B6841
:102E6C0018460C37BD4680BC704780B586B000AFA5
:102E7C00F8607A603B600B46FB72FB7A03F0070349
:102E8C005A1C13469B001344DB00FA6813447B6105
:102E9C007B697A685A617B693A689A617B6901221D
:102EAC0083F824207B693A681A627B690022DA6114
:102EBC007B6901225A70FB7A03F00703DAB27B6953
:102ECC001A70FB681B687969184603F005FC00232F
:102EDC0018461837BD4680BD80B584B000AF786009
:102EEC000B46FB70FB7803F007027B685B689A4229
:102EFC0001D901234CE097F90330002B0EDAFB7853
:102F0C0003F007035A1C13469B001344DB007A683A
:102F1C001344FB60FB6801225A700CE0FA781346EC
:102F2C009B001344DB0003F5B4737A681344FB6015
:102F3C00FB6800225A70FB6801229A70FB7803F040
:102F4C000703DAB2FB681A707B6893F8A832012B7E
:102F5C0001D102231CE07B68012283F8A8227B6844
:102F6C001B68F968184604F068FFFB7803F0070348
:102F7C00002B08D17B681A687B6803F52C73194603
:102F8C00104605F08DF87B68002283F8A8220023F8
:102F9C0018461037BD4680BD80B584B000AF786050
:102FAC000B46FB70FB7803F00F027B685B689A4260
:102FBC0001D9012340E097F90330002B0EDAFB789E
:102FCC0003F007035A1C13469B001344DB007A687A
:102FDC001344FB60FB6801225A700EE0FB7803F08F
:102FEC00070213469B001344DB0003F5B4737A68A5
:102FFC001344FB60FB6800225A70FB6800229A7035
:10300C00FB7803F00703DAB2FB681A707B6893F85D
:10301C00A832012B01D102230EE07B68012283F838
:10302C00A8227B681B68F968184604F056FF7B6879
:10303C00002283F8A822002318461037BD4680BD15
:10304C0080B596B000AF7860BFE37B681B68B3F8BF
:10305C004430A7F84E30B7F84E30DBB203F00F0314
:10306C0087F84D3097F84D30002B40F07981B7F848
:10307C004E3003F01003002B52D17B681B681B8869
:10308C009BB223F4E14323F07003FB817B681A6845
:10309C00FB896FEA43436FEA53439BB213807B680F
:1030AC0028337B657B681B68B3F850309BB21A469B
:1030BC007B6D1B78DB00134402335B007A6812686B
:1030CC00134403F580631B88C3F309027B6DDA613B
:1030DC007B6D5A697B6DDB691A447B6D5A610021EB
:1030EC00786806F04CFE7B6893F82430DBB2002B3A
:1030FC0000F06B837B6D9B69002B40F066837B68D3
:10310C0093F82430DBB263F07F03DAB27B681B6880
:10311C0092B2A3F84C207B68002283F8242054E35D
:10312C007B6803F5B4737B657B681B681B88A7F809
:10313C004A30B7F84A3003F40063002B34D07B6874
:10314C001B68B3F850309BB21A467B6D1B78DB00C2
:10315C00134406335B007A681268134403F58063EA
:10316C001B88C3F309027B6DDA617B6818687B6886
:10317C0003F52C717B6DDA887B6DDB699BB204F0F7
:10318C00DFFF7B681B681B889AB240F68F73134075
:10319C003B827B681B683A8A42F0800292B21A80AA
:1031AC00786806F0BFFD10E3B7F94A30002B80F2C7
:1031BC000C837B681B681B889AB240F68F73134094
:1031CC00FB837B681B68FA8B42F0800292B21A80F8
:1031DC007B681B68B3F850309BB21A467B6D1B782A
:1031EC00DB00134406335B007A681268134403F562
:1031FC0080631B88C3F309027B6DDA617B6DDB692D
:10320C00002B19D07B6D5B69002B15D07B6818687F
:10321C007B6D59697B6DDA887B6DDB699BB204F041
:10322C008FFF7B6D5A697B6DDB691A447B6D5A612C
:10323C000021786806F088FD7B681B681B88A7F85E
:10324C004A30B7F84A3003F40063002B40F0BD82DB
:10325C00B7F84A3003F44053B3F5405F00F0B58241
:10326C007B681B68BB617B681B68B3F850309BB2F2
:10327C001A46BB691344BB61BB6903F20C437B6107
:10328C007B691B889BB2C3F309039AB27B691A80D2
:10329C007B6D1B693E2B1DD97B6D1B695B097B64A8
:1032AC007B6D1B6903F01F03002B02D17B6C013B70
:1032BC007B647B691B889AB27B6C9BB29B029BB232
:1032CC0013439BB26FEA43436FEA53439AB27B6951
:1032DC001A8026E07B6D1B69002B0AD17B691B8849
:1032EC009BB26FEA43436FEA53439AB27B691A80ED
:1032FC0017E07B6D1B695B087B647B6D1B6903F0BE
:10330C000103002B02D07B6C01337B647B691B882F
:10331C009AB27B6C9BB29B029BB213439AB27B69B1
:10332C001A807B681B681B889BB223F4804323F0B4
:10333C0070037B827B8A83F480537B827B8A83F449
:10334C0000537B827B681A687B8A43F07F4343F48B
:10335C007F0343F4004343F080039BB2138034E2B9
:10336C007B681B681A4697F84D309B0013441B88EA
:10337C00A7F84A30B7F94A30002B80F2FC807B6802
:10338C001B681A4697F84D309B0013441B889AB261
:10339C0040F68F731340A7F848307B681B681A46B9
:1033AC0097F84D309B001344B7F8482042F0800248
:1033BC0092B21A8097F84D2013469B001344DB0001
:1033CC0003F5B4737A6813447B657B6D1B7B002B10
:1033DC0025D17B681B68B3F850309BB21A467B6DC5
:1033EC001B78DB00134406335B007A6812681344C5
:1033FC0003F580631B88C3F30903A7F85030B7F8B3
:10340C005030002B00F092807B6818687B6D5969F6
:10341C007B6DDA88B7F8503004F092FE86E07B6D55
:10342C00DB78022B0AD1B7F84A301A46796D7868E6
:10343C0000F0D9F90346A7F8503077E07B681B6899
:10344C001A467B6D1B789B0013441B889BB223F49C
:10345C00E04323F07003A7F852307B681B681A46D0
:10346C007B6D1B789B001A44B7F8523043F07F43B6
:10347C0043F47F0343F4004343F0C0039BB2138037
:10348C007B681B681A467B6D1B789B0013441B885A
:10349C009BB203F48043002B24D07B681B68B3F8E9
:1034AC0050309BB21A467B6D1B78DB001344023301
:1034BC005B007A681268134403F580631B88C3F3BE
:1034CC000903A7F85030B7F85030002B2ED07B688A
:1034DC0018687B6D59697B6D1A89B7F8503004F008
:1034EC002FFE23E07B681B68B3F850309BB21A4662
:1034FC007B6D1B78DB00134406335B007A68126823
:10350C00134403F580631B88C3F30903A7F85030F9
:10351C00B7F85030002B09D07B6818687B6D59695F
:10352C007B6D5A89B7F8503004F00AFE7B6DDA696E
:10353C00B7F850301A447B6DDA617B6D5A69B7F875
:10354C0050301A447B6D5A617B6D9B69002B05D002
:10355C00B7F850207B6D1B699A4206D27B6D1B78A5
:10356C001946786806F0F0FB05E07B681B68796DFE
:10357C00184603F0B1F8B7F84A3003F08003002B7B
:10358C0000F0238197F84D305A1C13469B001344CE
:10359C00DB007A6813447B657B681B681A4697F8D6
:1035AC004D309B0013441B889BB223F4E14323F062
:1035BC007003A7F842307B681B681A4697F84D30A9
:1035CC009B001A44B7F842306FEA43436FEA534307
:1035DC009BB213807B6DDB78012B40F0A2807B6D5E
:1035EC0000229A617B6D1B7B002B00F09380B7F857
:1035FC004A3003F04003002B46D07B6D5B78002BE8
:10360C0026D17B681B687B627B681B68B3F85030E3
:10361C009BB21A467B6A13447B627B6D1B781A0142
:10362C007B6A134403F204433B623B6A1B889BB2E4
:10363C00C3F309039AB23B6A1A803B6A1B889BB29C
:10364C006FEA43436FEA53439AB23B6A1A8061E0D4
:10365C007B6D5B78012B5DD17B681B68FB627B68A3
:10366C001B68B3F850309BB21A46FB6A1344FB62DA
:10367C007B6D1B781A01FB6A134403F20443BB6293
:10368C00BB6A00221A8045E07B681B68FB637B6D7C
:10369C005B78002B26D17B681B687B637B681B687F
:1036AC00B3F850309BB21A467B6B13447B637B6D33
:1036BC001B781A017B6B134403F20C433B633B6B8B
:1036CC001B889BB2C3F309039AB23B6B1A803B6B0A
:1036DC001B889BB26FEA43436FEA53439AB23B6B2E
:1036EC001A8017E07B6D5B78012B13D17B681B680C
:1036FC00B3F850309BB21A46FB6B1344FB637B6DE3
:10370C001B781A01FB6B134403F20C43BB63BB6BBA
:10371C0000221A807B6D1B781946786806F02FFB07
:10372C0053E0B7F84A3003F48073002B46D17B6822
:10373C001B68B3F850309BB21A467B6D1B78DB00CC
:10374C00134402335B007A681268134403F58063F8
:10375C001B88C3F30903A7F840307B6D9A69B7F84F
:10376C0040309A4207D97B6D9A69B7F84030D21A2B
:10377C007B6D9A6102E07B6D00229A617B6D9B6987
:10378C00002B06D17B6D1B781946786806F0F7FA8A
:10379C001BE07B6D5A69B7F840301A447B6D5A6157
:1037AC007B6DDA69B7F840301A447B6DDA617B685F
:1037BC001B68796D184602F08FFF06E0B7F84A30A7
:1037CC001A46796D786800F01BF97B681B68B3F8B2
:1037DC0044309BB21BB2002BFFF637AC00231846CB
:1037EC005837BD4680BD80B588B000AFF860B96071
:1037FC001346FB80FB8803F48043002B7ED0FB68D0
:10380C001B68B3F850309BB21A46BB681B78DB00C0
:10381C00134402335B00FA681268134403F58063A7
:10382C001B88C3F309037B83BB689A697B8B9A4221
:10383C0006D3BB689A697B8BD21ABB689A6102E08B
:10384C00BB6800229A61BB689B69002B23D1FB6883
:10385C001B681A46BB681B789B0013441B889BB2E1
:10386C0023F4804323F070033B833B8B83F400539E
:10387C003B83FB681B681A46BB681B789B001A4489
:10388C003B8B43F07F4343F47F0343F4004343F00B
:10389C0080039BB21380FB8803F04003002B1FD0E6
:1038AC00FB681B681A46BB681B789B0013441B887B
:1038BC009BB223F4E04323F07003FB82FB681B688C
:1038CC001A46BB681B789B001A44FB8A43F07F4363
:1038DC0043F47F0343F4004343F0C0039BB21380D3
:1038EC007B8B002B00F08780FB681868BB685969DC
:1038FC00BB681A897B8B04F023FC7CE0FB681B689B
:10390C00B3F850309BB21A46BB681B78DB001344EB
:10391C0006335B00FA681268134403F580631B8856
:10392C00C3F309037B83BB689A697B8B9A4206D3EA
:10393C00BB689A697B8BD21ABB689A6102E0BB6840
:10394C0000229A61BB689B69002B23D1FB681B6822
:10395C001A46BB681B789B0013441B889BB223F44C
:10396C00804323F07003FB83FB8B83F40053FB83B6
:10397C00FB681B681A46BB681B789B001A44FB8BC0
:10398C0043F07F4343F47F0343F4004343F080034D
:10399C009BB21380FB8803F04003002B1FD1FB6804
:1039AC001B681A46BB681B789B0013441B889BB290
:1039BC0023F4E04323F07003BB83FB681B681A46B7
:1039CC00BB681B789B001A44BB8B43F07F4343F4CA
:1039DC007F0343F4004343F0C0039BB213807B8B03
:1039EC00002B08D0FB681868BB685969BB685A89FA
:1039FC007B8B04F0A5FB7B8B18462037BD4680BD26
:103A0C0080B5A4B000AFF860B9601346FB80FB88AA
:103A1C0003F04003002B00F0DD81FB681B68B3F85A
:103A2C0050309BB21A46BB681B78DB001344023340
:103A3C005B00FA681268134403F580631B88C3F3B8
:103A4C000903A7F88630BB689A69B7F886309A42A2
:103A5C0007D9BB689A69B7F88630D21ABB689A61E5
:103A6C0002E0BB6800229A61BB689B69002B40F0A6
:103A7C00B980BB685B78002B26D1FB681B68FB62A6
:103A8C00FB681B68B3F850309BB21A46FB6A1344B0
:103A9C00FB62BB681B781A01FB6A134403F20443F4
:103AAC00BB62BB6A1B889BB2C3F309039AB2BB6AA5
:103ABC001A80BB6A1B889BB26FEA43436FEA53437D
:103ACC009AB2BB6A1A801AE0BB685B78012B16D1DC
:103ADC00FB681B687B63FB681B68B3F850309BB2B8
:103AEC001A467B6B13447B63BB681B781A017B6B98
:103AFC00134403F204433B633B6B00221A80FB68C4
:103B0C001B687B62BB685B78002B26D1FB681B684B
:103B1C00FB61FB681B68B3F850309BB21A46FB691B
:103B2C001344FB61BB681B781A01FB69134403F255
:103B3C000C43BB61BB691B889BB2C3F309039AB2EC
:103B4C00BB691A80BB691B889BB26FEA43436FEA5F
:103B5C0053439AB2BB691A8017E0BB685B78012BA0
:103B6C0013D1FB681B68B3F850309BB21A467B6AC2
:103B7C0013447B62BB681B781A017B6A134403F203
:103B8C000C433B623B6A00221A80BB681B781946C7
:103B9C00F86806F0F4F8FB8803F48043002B00F07F
:103BAC00FC82FB681B681A46BB681B789B0013449D
:103BBC001B889BB223F4E04323F07003FB82FB6869
:103BCC001B681A46BB681B789B001A44FB8A43F09F
:103BDC007F4343F47F0343F4404343F080039BB2A1
:103BEC001380DAE2FB8803F48043002B21D0FB68BE
:103BFC001B681A46BB681B789B0013441B889BB23E
:103C0C0023F4E04323F07003A7F88A30FB681B68A9
:103C1C001A46BB681B789B001A44B7F88A3043F0ED
:103C2C007F4343F47F0343F4404343F080039BB250
:103C3C001380BB6893F82430012B40F0AE82BB6834
:103C4C005A69B7F886301A44BB685A61BB68DA699E
:103C5C00B7F886301A44BB68DA61BB681A6ABB686D
:103C6C001B699A420BD3BB681B69C7F88C30BB68C5
:103C7C001A6AD7F88C30D21ABB681A6217E0BB6884
:103C8C001B6A002B08D1B7F88630C7F88C30BB689C
:103C9C00002283F824200AE0BB68002283F8242049
:103CAC00BB681B6AC7F88C30BB6800221A62BB6801
:103CBC005B78002B65D1FB681B68FB63FB681B689A
:103CCC00B3F850309BB21A46FB6B1344FB63BB68D2
:103CDC001B781A01FB6B134403F20443BB63BB6BED
:103CEC001B889BB2C3F309039AB2BB6B1A80D7F83B
:103CFC008C303E2B1DD9D7F88C305B09BB64D7F8C0
:103D0C008C3003F01F03002B02D1BB6C013BBB6456
:103D1C00BB6B1B889AB2BB6C9BB29B029BB21343CE
:103D2C009BB26FEA43436FEA53439AB2BB6B1A8060
:103D3C0044E0D7F88C30002B0AD1BB6B1B889BB2AC
:103D4C006FEA43436FEA53439AB2BB6B1A8035E078
:103D5C00D7F88C305B08BB64D7F88C3003F00103C8
:103D6C00002B02D0BB6C0133BB64BB6B1B889AB2BB
:103D7C00BB6C9BB29B029BB213439AB2BB6B1A8077
:103D8C001CE0BB685B78012B18D1FB681B687B645B
:103D9C00FB681B68B3F850309BB21A467B6C13441B
:103DAC007B64BB681B781A017B6C134403F20443DD
:103DBC003B64D7F88C309AB23B6C1A80FB6818685D
:103DCC00BB685969BB681A89D7F88C309BB204F070
:103DDC0072F9E2E1FB681B68B3F850309BB21A46EB
:103DEC00BB681B78DB00134406335B00FA6812686F
:103DFC00134403F580631B88C3F30903A7F88630CB
:103E0C00BB689A69B7F886309A4207D3BB689A693F
:103E1C00B7F88630D21ABB689A6102E0BB68002200
:103E2C009A61BB689B69002B40F0C080BB685B78D3
:103E3C00002B26D1FB681B68FB67FB681B68B3F87B
:103E4C0050309BB21A46FB6F1344FB67BB681B7860
:103E5C001A01FB6F134403F20443BB67BB6F1B884F
:103E6C009BB2C3F309039AB2BB6F1A80BB6F1B885A
:103E7C009BB26FEA43436FEA53439AB2BB6F1A800B
:103E8C001AE0BB685B78012B16D1FB681B687B665C
:103E9C00FB681B68B3F850309BB21A467B6E134418
:103EAC007B66BB681B781A017B6E134403F20443D8
:103EBC003B663B6E00221A80FB681B687B67BB6805
:103ECC005B78002B2BD1FB681B68FB66FB681B68BF
:103EDC00B3F850309BB21A46FB6E1344FB66BB68BA
:103EEC001B781A01FB6E134403F20C43C7F88030A5
:103EFC00D7F880301B889BB2C3F309039AB2D7F86A
:103F0C0080301A80D7F880301B889BB26FEA43430D
:103F1C006FEA53439AB2D7F880301A8017E0BB6827
:103F2C005B78012B13D1FB681B68B3F850309BB244
:103F3C001A467B6F13447B67BB681B781A017B6F37
:103F4C00134403F20C433B673B6F00221A80BB689F
:103F5C001B781946F86805F012FFFB8803F48043C0
:103F6C00002B40F01A81FB681B681A46BB681B7853
:103F7C009B0013441B889BB223F4E04323F0700393
:103F8C00A7F88830FB681B681A46BB681B789B0037
:103F9C001A44B7F8883043F07F4343F47F0343F46B
:103FAC00404343F080039BB21380F6E0FB8803F49C
:103FBC008043002B21D1FB681B681A46BB681B7819
:103FCC009B0013441B889BB223F4E04323F0700343
:103FDC00A7F84E30FB681B681A46BB681B789B0021
:103FEC001A44B7F84E3043F07F4343F47F0343F455
:103FFC00404343F080039BB21380BB6893F824309A
:10400C00012B40F0CA80BB685A69B7F886301A4455
:10401C00BB685A61BB68DA69B7F886301A44BB686A
:10402C00DA61BB681A6ABB681B699A420BD3BB681E
:10403C001B69C7F88C30BB681A6AD7F88C30D21A57
:10404C00BB681A6217E0BB681B6A002B08D1B7F873
:10405C008630C7F88C30BB68002283F824200AE035
:10406C00BB681B6AC7F88C30BB6800221A62BB683D
:10407C00002283F82420FB681B687B65BB685B7897
:10408C00002B65D1FB681B68FB65FB681B68B3F8EC
:10409C0050309BB21A46FB6D1344FB65BB681B7812
:1040AC001A01FB6D134403F20C43BB65BB6D1B88FB
:1040BC009BB2C3F309039AB2BB6D1A80D7F88C304C
:1040CC003E2B1DD9D7F88C305B09BB66D7F88C30EA
:1040DC0003F01F03002B02D1BB6E013BBB66BB6D13
:1040EC001B889AB2BB6E9BB29B029BB213439BB2D2
:1040FC006FEA43436FEA53439AB2BB6D1A8041E0B7
:10410C00D7F88C30002B0AD1BB6D1B889BB26FEAA1
:10411C0043436FEA53439AB2BB6D1A8032E0D7F82F
:10412C008C305B08BB66D7F88C3003F00103002B96
:10413C0002D0BB6E0133BB66BB6D1B889AB2BB6EE3
:10414C009BB29B029BB213439AB2BB6D1A8019E0CF
:10415C00BB685B78012B15D1FB681B68B3F850303A
:10416C009BB21A467B6D13447B65BB681B781A01A6
:10417C007B6D134403F20C433B65D7F88C309AB239
:10418C003B6D1A80FB681868BB685969BB685A8913
:10419C00D7F88C309BB203F08EFFFB681B681A4675
:1041AC00BB681B789B0013441B889BB223F4E04331
:1041BC0023F04003BB82BB8A83F01003BB82BB8A13
:1041CC0083F02003BB82FB681B681A46BB681B7814
:1041DC009B001A44BB8A43F07F4343F47F0343F4B0
:1041EC00004343F080039BB21380002318469037A2
:1041FC00BD4680BD80B487B000AFF8607B600B46D5
:10420C007B8113463B817B8903F080039BB2002B9F
:10421C000BD07B8903F007035A1C13469B001344F5
:10422C00DB00FA6813447B6109E07A8913469B0032
:10423C001344DB0003F5B473FA6813447B613B89C8
:10424C00002B07D17B6900221A737B689AB27B69B9
:10425C00DA800BE07B6901221A737B689AB27B6966
:10426C001A817B681B0C9AB27B695A810023184611
:10427C001C37BD4680BC704780B586B000AF7860F7
:10428C007B68002B01D1012372E27B681B6803F071
:10429C000103002B00F08780924B5B6803F00C034A
:1042AC00042B0CD08F4B5B6803F00C03082B12D142
:1042BC008C4B5B6803F48033B3F5803F0BD1894B97
:1042CC001B6803F40033002B6CD07B685B68002BFD
:1042DC0068D101234CE27B685B68B3F5803F06D163
:1042EC00804B1B687F4A43F4803313602EE07B685D
:1042FC005B68002B0CD17B4B1B687A4A23F4803310
:10430C001360784B1B68774A23F4802313601DE0FD
:10431C007B685B68B3F5A02F0CD1724B1B68714A9C
:10432C0043F4802313606F4B1B686E4A43F4803355
:10433C0013600BE06B4B1B686A4A23F480331360E9
:10434C00684B1B68674A23F4802313607B685B68A7
:10435C00002B13D0FDF77CFA386108E0FDF778FAF2
:10436C0002463B69D31A642B01D9032300E25D4B4F
:10437C001B6803F40033002BF0D014E0FDF768FA4F
:10438C00386108E0FDF764FA02463B69D31A642BE6
:10439C0001D90323ECE1534B1B6803F40033002BCE
:1043AC00F0D100E000BF7B681B6803F00203002B18
:1043BC0063D04C4B5B6803F00C03002B0BD0494BC8
:1043CC005B6803F00C03082B1CD1464B5B6803F4B1
:1043DC008033002B16D1434B1B6803F00203002BD8
:1043EC0005D07B681B69012B01D00123C0E13D4B3B
:1043FC001B6823F0F8027B685B69DB0039491343C7
:10440C000B603AE07B681B69002B20D0364B0122F5
:10441C001A60FDF71DFA386108E0FDF719FA02463B
:10442C003B69D31A022B01D90323A1E12D4B1B6845
:10443C0003F00203002BF0D02A4B1B6823F0F80288
:10444C007B685B69DB00274913430B6015E0264B47
:10445C0000221A60FDF7FCF9386108E0FDF7F8F965
:10446C0002463B69D31A022B01D9032380E11D4B71
:10447C001B6803F00203002BF0D17B681B6803F070
:10448C000803002B3AD07B689B69002B19D0174B83
:10449C0001221A60FDF7DCF9386108E0FDF7D8F964
:1044AC0002463B69D31A022B01D9032360E10D4B61
:1044BC005B6A03F00203002BF0D0012000F0BAFA83
:1044CC001CE00A4B00221A60FDF7C2F938610FE0BC
:1044DC00FDF7BEF902463B69D31A022B08D9032318
:1044EC0046E100BF001002400000424280044242FC
:1044FC00924B5B6A03F00203002BE9D17B681B68CB
:10450C0003F00403002B00F0A6800023FB758B4BFB
:10451C00DB6903F08053002B0DD1884BDB69874A94
:10452C0043F08053D361854BDB6903F08053BB6050
:10453C00BB680123FB75824B1B6803F48073002B53
:10454C0018D17F4B1B687E4A43F480731360FDF7D0
:10455C007FF9386108E0FDF77BF902463B69D31A15
:10456C00642B01D9032303E1754B1B6803F480739F
:10457C00002BF0D07B68DB68012B06D16F4B1B6ADC
:10458C006E4A43F0010313622DE07B68DB68002B5D
:10459C000CD16A4B1B6A694A23F001031362674B07
:1045AC001B6A664A23F0040313621CE07B68DB6819
:1045BC00052B0CD1614B1B6A604A43F00403136258
:1045CC005E4B1B6A5D4A43F0010313620BE05B4BCD
:1045DC001B6A5A4A23F001031362584B1B6A574A51
:1045EC0023F0040313627B68DB68002B15D0FDF706
:1045FC002FF938610AE0FDF72BF902463B69D31A13
:10460C0041F28832934201D90323B1E04B4B1B6A30
:10461C0003F00203002BEED014E0FDF719F938611A
:10462C000AE0FDF715F902463B69D31A41F28832CC
:10463C00934201D903239BE0404B1B6A03F0020316
:10464C00002BEED1FB7D012B05D13C4BDB693B4AAA
:10465C0023F08053D3617B68DB69002B00F08780EB
:10466C00364B5B6803F00C03082B61D07B68DB696D
:10467C00022B46D1334B00221A60FDF7E9F8386162
:10468C0008E0FDF7E5F802463B69D31A022B01D985
:10469C0003236DE0294B1B6803F00073002BF0D152
:1046AC007B681B6AB3F5803F08D1244B5B6823F40D
:1046BC0000327B689B68214913434B601F4B5B683E
:1046CC0023F474127B68196A7B685B6A0B431B4981
:1046DC0013434B601B4B01221A60FDF7B9F838618C
:1046EC0008E0FDF7B5F802463B69D31A022B01D955
:1046FC0003233DE0114B1B6803F00073002BF0D03B
:10470C0035E0104B00221A60FDF7A2F8386108E082
:10471C00FDF79EF802463B69D31A022B01D90323FD
:10472C0026E0064B1B6803F00073002BF0D11EE053
:10473C007B68DB69012B07D1012319E000100240D3
:10474C0000700040600042420B4B5B68FB60FB68F2
:10475C0003F480327B681B6A9A4206D1FB6803F42F
:10476C0070127B685B6A9A4201D0012300E000233F
:10477C0018461837BD4680BD0010024080B584B085
:10478C0000AF786039607B68002B01D10123D0E049
:10479C006A4B1B6803F007033A689A4210D9674BBF
:1047AC001B6823F0070265493B6813430B60634B9E
:1047BC001B6803F007033A689A4201D00123B8E062
:1047CC007B681B6803F00203002B20D07B681B68FE
:1047DC0003F00403002B05D0594B5B68584A43F493
:1047EC00E06353607B681B6803F00803002B05D063
:1047FC00534B5B68524A43F460535360504B5B68B5
:10480C0023F0F0027B689B684D4913434B607B6837
:10481C001B6803F00103002B40D07B685B68012B05
:10482C0007D1474B1B6803F40033002B15D1012330
:10483C007FE07B685B68022B07D1414B1B6803F060
:10484C000073002B09D1012373E03D4B1B6803F06F
:10485C000203002B01D101236BE0394B5B6823F081
:10486C0003027B685B68364913434B60FCF7F0FF2F
:10487C00F8600AE0FCF7ECFF0246FB68D31A41F241
:10488C008832934201D9032353E02D4B5B6803F02C
:10489C000C027B685B689B009A42EBD1274B1B6830
:1048AC0003F007033A689A4210D2244B1B6823F09A
:1048BC00070222493B6813430B60204B1B6803F033
:1048CC0007033A689A4201D0012332E07B681B68E7
:1048DC0003F00403002B08D0194B5B6823F4E0624F
:1048EC007B68DB68164913434B607B681B6803F0DD
:1048FC000803002B09D0124B5B6823F460527B68D1
:10490C001B69DB000E4913434B6000F021F8024693
:10491C000B4B5B681B0903F00F030A49CB5C22FAB3
:10492C0003F3094A1360094B1B681846FCF74EFF4A
:10493C00002318461037BD4680BD00BF0020024042
:10494C000010024020B000080000002004000020ED
:10495C0080B487B000AF0023FB600023BB60002352
:10496C007B6100237B6000233B611E4B5B68FB601B
:10497C00FB6803F00C03042B02D0082B03D027E0B8
:10498C00194B3B6127E0FB689B0C03F00F03174AA4
:10499C00D35C7B60FB6803F48033002B10D0114B8D
:1049AC005B685B0C03F00103114AD35CBB607B6852
:1049BC000D4A03FB02F2BB68B2FBF3F37B6104E02C
:1049CC007B680C4A02FB03F37B617B693B6102E071
:1049DC00054B3B6100BF3B6918461C37BD4680BC8C
:1049EC00704700BF0010024000127A0038B0000877
:1049FC0048B0000800093D0080B400AF024B1B68B2
:104A0C001846BD4680BC70470000002080B500AF42
:104A1C00FFF7F2FF0246054B5B681B0A03F0070326
:104A2C000349CB5C22FA03F3184680BD0010024008
:104A3C0030B0000880B485B000AF78600A4B1B68BA
:104A4C000A4AA2FB03235B0A7A6802FB03F3FB60AE
:104A5C0000BFFB685A1EFA60002BF9D100BF00BFE3
:104A6C001437BD4680BC704700000020D34D621047
:104A7C0080B586B000AF786000233B610023FB60FB
:104A8C007B681B6803F00103002B7DD00023FB75B2
:104A9C004F4BDB6903F08053002B0DD14C4BDB6982
:104AAC004B4A43F08053D361494BDB6903F080538D
:104ABC00BB60BB680123FB75464B1B6803F480731A
:104ACC00002B18D1434B1B68424A43F4807313608C
:104ADC00FCF7BEFE386108E0FCF7BAFE02463B6903
:104AEC00D31A642B01D903236DE03A4B1B6803F4F2
:104AFC008073002BF0D0364B1B6A03F44073FB60C1
:104B0C00FB68002B2ED07B685B6803F44073FA685B
:104B1C009A4227D02E4B1B6A23F44073FB602E4B1A
:104B2C0001221A602C4B00221A60294AFB6813627E
:104B3C00FB6803F00103002B14D0FCF789FE3861ED
:104B4C000AE0FCF785FE02463B69D31A41F2883233
:104B5C00934201D9032336E01D4B1B6A03F0020379
:104B6C00002BEED01A4B1B6A23F440727B685B68F7
:104B7C00174913430B62FB7D012B05D1144BDB69E9
:104B8C00134A23F08053D3617B681B6803F0020344
:104B9C00002B08D00E4B5B6823F440427B689B686B
:104BAC000B4913434B607B681B6803F01003002B0D
:104BBC0008D0074B5B6823F480027B68DB680449F0
:104BCC0013434B60002318461837BD4680BD00BF09
:104BDC0000100240007000404004424280B582B098
:104BEC0000AF78607B68002B01D1012341E07B682A
:104BFC0093F83D30DBB2002B06D17B68002283F8A2
:104C0C003C207868FCF71EFD7B68022283F83D206F
:104C1C007B681A687B6804331946104600F030FC38
:104C2C007B68012283F846207B68012283F83E20B2
:104C3C007B68012283F83F207B68012283F84020A7
:104C4C007B68012283F841207B68012283F8422093
:104C5C007B68012283F843207B68012283F844207F
:104C6C007B68012283F845207B68012283F83D2074
:104C7C00002318460837BD4680BD000080B485B0BF
:104C8C0000AF78607B6893F83D30DBB2012B01D02C
:104C9C0001233AE07B68022283F83D207B681B6885
:104CAC00DA687B681B6842F00102DA607B681B687B
:104CBC00184A93420ED07B681B68B3F1804F09D021
:104CCC007B681B68144A934204D07B681B68134AA8
:104CDC00934211D17B681B689B6803F00703FB6050
:104CEC00FB68062B10D07B681B681A687B681B68F6
:104CFC0042F001021A6007E07B681B681A687B6847
:104D0C001B6842F001021A60002318461437BD4696
:104D1C0080BC7047002C014000040040000800409B
:104D2C0080B582B000AF78607B68002B01D1012385
:104D3C0041E07B6893F83D30DBB2002B06D17B68F9
:104D4C00002283F83C20786800F039F87B68022256
:104D5C0083F83D207B681A687B680433194610463B
:104D6C0000F08EFB7B68012283F846207B680122D1
:104D7C0083F83E207B68012283F83F207B68012268
:104D8C0083F840207B68012283F841207B68012254
:104D9C0083F842207B68012283F843207B68012240
:104DAC0083F844207B68012283F845207B6801222C
:104DBC0083F83D20002318460837BD4680BD80B4DB
:104DCC0083B000AF786000BF0C37BD4680BC704725
:104DDC0080B584B000AF786039603B68002B09D196
:104DEC007B6893F83E30DBB2012B14BF0123002308
:104DFC00DBB222E03B68042B09D17B6893F83F308F
:104E0C00DBB2012B14BF01230023DBB215E03B689E
:104E1C00082B09D17B6893F84030DBB2012B14BF0F
:104E2C0001230023DBB208E07B6893F84130DBB24E
:104E3C00012B14BF01230023DBB2002B01D0012373
:104E4C005EE03B68002B04D17B68022283F83E2095
:104E5C0013E03B68042B04D17B68022283F83F20CB
:104E6C000BE03B68082B04D17B68022283F84020BE
:104E7C0003E07B68022283F841207B681B680122D7
:104E8C003968184600F07CFD7B681B681E4A93420B
:104E9C0007D17B681B685A6C7B681B6842F4004224
:104EAC005A647B681B68184A93420ED07B681B6857
:104EBC00B3F1804F09D07B681B68144A934204D02D
:104ECC007B681B68124A934211D17B681B689B68F4
:104EDC0003F00703FB60FB68062B10D07B681B6894
:104EEC001A687B681B6842F001021A6007E07B6855
:104EFC001B681A687B681B6842F001021A60002369
:104F0C0018461037BD4680BD002C014000040040FF
:104F1C000008004080B582B000AF78607B681B68E9
:104F2C001B6903F00203022B22D17B681B68DB6830
:104F3C0003F00203022B1BD17B681B686FF002028B
:104F4C001A617B6801221A777B681B689B6903F0E6
:104F5C000303002B03D0786800F076FA05E078683C
:104F6C0000F069FA786800F078FA7B6800221A770A
:104F7C007B681B681B6903F00403042B22D17B683C
:104F8C001B68DB6803F00403042B1BD17B681B68D4
:104F9C006FF004021A617B6802221A777B681B6827
:104FAC009B6903F44073002B03D0786800F04CFA33
:104FBC0005E0786800F03FFA786800F04EFA7B68FC
:104FCC0000221A777B681B681B6903F00803082B07
:104FDC0022D17B681B68DB6803F00803082B1BD10C
:104FEC007B681B686FF008021A617B6804221A77D1
:104FFC007B681B68DB6903F00303002B03D0786824
:10500C0000F022FA05E0786800F015FA786800F0F4
:10501C0024FA7B6800221A777B681B681B6903F0F3
:10502C001003102B22D17B681B68DB6803F0100384
:10503C00102B1BD17B681B686FF010021A617B6808
:10504C0008221A777B681B68DB6903F44073002B1A
:10505C0003D0786800F0F8F905E0786800F0EBF917
:10506C00786800F0FAF97B6800221A777B681B6875
:10507C001B6903F00103012B0ED17B681B68DB68F5
:10508C0003F00103012B07D17B681B686FF0010251
:10509C001A617868FBF70CFC7B681B681B6903F0D2
:1050AC008003802B0ED17B681B68DB6803F08003C8
:1050BC00802B07D17B681B686FF080021A617868BF
:1050CC0000F0E9FC7B681B681B6903F04003402B74
:1050DC000ED17B681B68DB6803F04003402B07D1C3
:1050EC007B681B686FF040021A61786800F0BEF9AB
:1050FC007B681B681B6903F02003202B0ED17B6897
:10510C001B68DB6803F02003202B07D17B681B682E
:10511C006FF020021A61786800F0B4FC00BF083709
:10512C00BD4680BD80B586B000AFF860B9607A60CE
:10513C000023FB75FB6893F83C30012B01D1022353
:10514C00AEE0FB68012283F83C207B680C2B00F25C
:10515C009F8001A252F823F0995100089D5200083B
:10516C009D5200089D520008D95100089D5200081C
:10517C009D5200089D5200081B5200089D520008C9
:10518C009D5200089D5200085B520008FB681B688A
:10519C00B968184600F0D6F9FB681B689A69FB6879
:1051AC001B6842F008029A61FB681B689A69FB68ED
:1051BC001B6822F004029A61FB681B689969BB6842
:1051CC001A69FB681B680A439A6164E0FB681B68F8
:1051DC00B968184600F01CFAFB681B689A69FB68F2
:1051EC001B6842F400629A61FB681B689A69FB6851
:1051FC001B6822F480629A61FB681B689969BB6822
:10520C001B691A02FB681B680A439A6143E0FB683E
:10521C001B68B968184600F065FAFB681B68DA6908
:10522C00FB681B6842F00802DA61FB681B68DA69EC
:10523C00FB681B6822F00402DA61FB681B68D96901
:10524C00BB681A69FB681B680A43DA6123E0FB68D8
:10525C001B68B968184600F0AFFAFB681B68DA697E
:10526C00FB681B6842F40062DA61FB681B68DA6950
:10527C00FB681B6822F48062DA61FB681B68D969E1
:10528C00BB681B691A02FB681B680A43DA6102E0FF
:10529C000123FB7500BFFB68002283F83C20FB7DDB
:1052AC0018461837BD4680BD80B584B000AF786015
:1052BC0039600023FB737B6893F83C30012B01D1E0
:1052CC000223B4E07B68012283F83C207B68022235
:1052DC0083F83D207B681B689B68BB60BB6823F030
:1052EC007703BB60BB6823F47F43BB607B681B68A0
:1052FC00BA689A603B681B68B3F5005F3ED0B3F5A3
:10530C00005F00F28780B3F5805F00F08680B3F514
:10531C00805F7FD8702B1AD0702B7BD8602B50D02D
:10532C00602B77D8502B3CD0502B73D8402B58D0B7
:10533C00402B6FD8302B64D0302B6BD8202B60D007
:10534C00202B67D8002B5CD0102B5AD062E07B68E6
:10535C0018683B6899683B685A683B68DB6800F0E2
:10536C00F0FA7B681B689B68BB60BB6843F07703F3
:10537C00BB607B681B68BA689A604FE07B681868F2
:10538C003B6899683B685A683B68DB6800F0D9FA5F
:10539C007B681B689A687B681B6842F480429A6041
:1053AC003CE07B6818683B6859683B68DB681A46C8
:1053BC0000F050FA7B681B685021184600F0A7FAE1
:1053CC002CE07B6818683B6859683B68DB681A46B8
:1053DC0000F06EFA7B681B686021184600F097FAA3
:1053EC001CE07B6818683B6859683B68DB681A46A8
:1053FC0000F030FA7B681B684021184600F087FAF1
:10540C000CE07B681A683B681B681946104600F074
:10541C007EFA03E00123FB7300E000BF7B680122EE
:10542C0083F83D207B68002283F83C20FB7B1846E8
:10543C001037BD4680BD80B483B000AF786000BF2C
:10544C000C37BD4680BC704780B483B000AF786029
:10545C0000BF0C37BD4680BC704780B483B000AF32
:10546C00786000BF0C37BD4680BC704780B483B0F9
:10547C0000AF786000BF0C37BD4680BC70470000A1
:10548C0080B485B000AF786039607B681B68FB60C6
:10549C007B68294A93420BD07B68B3F1804F07D0CD
:1054AC007B68264A934203D07B68254A934208D1F5
:1054BC00FB6823F07003FB603B685B68FA6813437E
:1054CC00FB607B681C4A93420BD07B68B3F1804F26
:1054DC0007D07B68194A934203D07B68184A9342E1
:1054EC0008D1FB6823F44073FB603B68DB68FA6807
:1054FC001343FB60FB6823F080023B685B6913433A
:10550C00FB607B68FA681A603B689A687B68DA62B1
:10551C003B681A687B689A627B68074A934203D19E
:10552C003B681A697B681A637B6801225A6100BF69
:10553C001437BD4680BC7047002C0140000400406D
:10554C000008004080B487B000AF786039607B6899
:10555C001B6A7B617B681B6A23F001027B681A6201
:10556C007B685B683B617B689B69FB60FB6823F035
:10557C007003FB60FB6823F00303FB603B681B6854
:10558C00FA681343FB607B6923F002037B613B6881
:10559C009B687A6913437B617B681C4A93420CD1EC
:1055AC007B6923F008037B613B68DB687A691343F2
:1055BC007B617B6923F004037B617B68134A934214
:1055CC0011D13B6923F480733B613B6923F4007375
:1055DC003B613B685B693A6913433B613B689B6980
:1055EC003A6913433B617B683A695A607B68FA6895
:1055FC009A613B685A687B685A637B687A691A625D
:10560C0000BF1C37BD4680BC704700BF002C01405A
:10561C0080B487B000AF786039607B681B6A7B61AF
:10562C007B681B6A23F010027B681A627B685B68DC
:10563C003B617B689B69FB60FB6823F4E043FB6088
:10564C00FB6823F44073FB603B681B681B02FA6821
:10565C001343FB607B6923F020037B613B689B68F1
:10566C001B017A6913437B617B681D4A93420DD100
:10567C007B6923F080037B613B68DB681B017A69E3
:10568C0013437B617B6923F040037B617B68144A85
:10569C00934213D13B6923F480633B613B6923F450
:1056AC0000633B613B685B699B003A6913433B6158
:1056BC003B689B699B003A6913433B617B683A6981
:1056CC005A607B68FA689A613B685A687B689A638F
:1056DC007B687A691A6200BF1C37BD4680BC704774
:1056EC00002C014080B487B000AF786039607B68D3
:1056FC001B6A7B617B681B6A23F480727B681A626D
:10570C007B685B683B617B68DB69FB60FB6823F053
:10571C007003FB60FB6823F00303FB603B681B68B2
:10572C00FA681343FB607B6923F400737B613B686D
:10573C009B681B027A6913437B617B681D4A934209
:10574C000DD17B6923F400637B613B68DB681B0232
:10575C007A6913437B617B6923F480637B617B688B
:10576C00144A934213D13B6923F480533B613B6948
:10577C0023F400533B613B685B691B013A6913439B
:10578C003B613B689B691B013A6913433B617B6836
:10579C003A695A607B68FA68DA613B685A687B68D8
:1057AC00DA637B687A691A6200BF1C37BD4680BC1D
:1057BC00704700BF002C014080B487B000AF786008
:1057CC0039607B681B6A3B617B681B6A23F48052DF
:1057DC007B681A627B685B687B617B68DB69FB605A
:1057EC00FB6823F4E043FB60FB6823F44073FB602D
:1057FC003B681B681B02FA681343FB603B6923F48C
:10580C0000533B613B689B681B033A6913433B6144
:10581C007B680F4A934209D17B6923F480437B61F7
:10582C003B685B699B017A6913437B617B687A698E
:10583C005A607B68FA68DA613B685A687B681A645C
:10584C007B683A691A6200BF1C37BD4680BC704742
:10585C00002C014080B487B000AFF860B9607A606A
:10586C00FB681B6A7B61FB681B6A23F00102FB6807
:10587C001A62FB689B693B613B6923F0F0033B6157
:10588C007B681B013A6913433B617B6923F00A0374
:10589C007B617A69BB6813437B61FB683A699A61E7
:1058AC00FB687A691A6200BF1C37BD4680BC704722
:1058BC0080B487B000AFF860B9607A60FB681B6A8F
:1058CC007B61FB681B6A23F01002FB681A62FB68A1
:1058DC009B693B613B6923F470433B617B681B0311
:1058EC003A6913433B617B6923F0A0037B61BB687E
:1058FC001B017A6913437B61FB683A699A61FB6807
:10590C007A691A6200BF1C37BD4680BC704780B4F0
:10591C0085B000AF786039607B689B68FB60FB6882
:10592C0023F07003FB603A68FB68134343F00703F2
:10593C00FB607B68FA689A6000BF1437BD4680BC78
:10594C00704780B487B000AFF860B9607A603B6094
:10595C00FB689B687B617B6923F47F437B613B68BD
:10596C001A027B681A43BB6813437A6913437B6141
:10597C00FB687A699A6000BF1C37BD4680BC7047D3
:10598C0080B487B000AFF860B9607A60BB6803F090
:10599C001F03012202FA03F37B61FB681A6A7B691D
:1059AC00DB431A40FB681A62FB681A6ABB6803F097
:1059BC001F03796801FA03F31A43FB681A6200BFEC
:1059CC001C37BD4680BC704780B485B000AF786092
:1059DC0039607B6893F83C30012B01D1022346E0FF
:1059EC007B68012283F83C207B68022283F83D20EF
:1059FC007B681B685B68FB607B681B689B68BB6093
:105A0C00FB6823F07003FB603B681B68FA68134368
:105A1C00FB607B681B68FA685A607B681B68164AD7
:105A2C0093420ED07B681B68B3F1804F09D07B6822
:105A3C001B68124A934204D07B681B68104A93423D
:105A4C000CD1BB6823F08003BB603B685B68BA6811
:105A5C001343BB607B681B68BA689A607B68012241
:105A6C0083F83D207B68002283F83C2000231846F5
:105A7C001437BD4680BC7047002C01400004004028
:105A8C000008004080B483B000AF786000BF0C37D2
:105A9C00BD4680BC704780B483B000AF786000BF57
:105AAC000C37BD4680BC704784B080B483B000AF67
:105ABC00786007F1140080E80E00002318460C37BC
:105ACC00BD4680BC04B0704780B485B000AF786030
